S01200004C65645F4D61747269782E7372656329
S11300000C942A000C9447000C9447000C9447006D
S11300100C9447000C9447000C9447000C94470040
S11300200C9447000C9447000C9447000C94470030
S11300300C9447000C9447000C9447000C94470020
S11300400C9447000C9447000C9447000C94470010
S11300500C94470011241FBECFE5D8E0DEBFCDBF0E
S113006010E0A0E6B0E0E0EBF1E002C005900D92F4
S1130070A83BB107D9F720E0A8EBB0E001C01D927E
S1130080AD3BB207E1F70E94CE000C94D6000C946D
S113009000000F931F93CF93DF93E0EBF0E09DEC10
S11300A0899F912D1124969596959695C92FD0E008
S11300B0CC0FDD1FCC0FDD1FCC0FDD1FC05ADF4F6F
S11300C0990F292F220F220F920F891BA82FB0E01E
S11300D0AA0FBB1FAA0FBB1FAA0FBB1F8D01005A7B
S11300E01F4F28EB30E081918BBB8991D8014D9152
S11300F08D01B0E18B9FC0011124842BDB018C9313
S11301008BE291E00197F1F700C00000E217F307DA
S113011051F7DB011C92DF91CF911F910F9108954C
S11301201092B8001092B9001092BA001092BC005C
S11301301092BB0068E370E08091B8000E9449000F
S113014062E370E08091B9000E94490065E370E0C9
S11301508091BA000E9449008091BB009091BC003C
S113016001969093BC008093BB008631914010F3BC
S11301708091BA008F5F8093BA008C33B8F280917B
S1130180B9008F5F8093B9008C3370F28091B8000E
S11301908F5F8093B800883128F208958FEF8ABB6F
S11301A087BB84BB81BB0E949000FDCFF894FFCF36
S11301B00F0909090909090F0101010101010101DF
S11301C00F01010F0808080F0F01010F0101010FB2
S11301D00909090F010101010F08080F0101010FAD
S11301E00F08080F0909090F0F010101010101019D
S11301F00F09090F0909090F0F09090F0101010F5F
S10B02007FBFDFEFF7FBFDFEF9
S9030000FC
