S01200004C65645F4D61747269782E7372656329
S11300000C942A000C9447000C9447000C9447006D
S11300100C9447000C9447000C9447000C94470040
S11300200C9447000C9447000C9447000C94470030
S11300300C9447000C9447000C9447000C94470020
S11300400C9447000C9447000C9447000C94470010
S11300500C94470011241FBECFE5D8E0DEBFCDBF0E
S113006010E0A0E6B0E0EAE8F2E002C005900D92EC
S1130070A83BB107D9F720E0A8EBB0E001C01D927E
S1130080AD3BB207E1F70E943B010C9443010C9491
S11300900000CF93DF93E0EBF0E09DEC899F912D7E
S11300A01124969596959695C92FD0E0CC0FDD1F17
S11300B0CC0FDD1FCC0FDD1FC05ADF4F990F292F46
S11300C0220F220F920F891BA82FB0E0AA0FBB1F8B
S11300D0AA0FBB1FAA0FBB1FA05ABF4F28EB30E0CB
S11300E081918BBB89914D9150E1859FC001112471
S11300F0842B85BB8BE291E00197F1F700C00000EF
S1130100E217F30769F715BADF91CF910895CF93FA
S1130110DF93E0EBF0E09DEC899F912D11249695FF
S113012096959695C92FD0E0CC0FDD1FCC0FDD1F1F
S1130130CC0FDD1FC05ADF4F990F292F220F220F3A
S1130140920F891BA82FB0E0AA0FBB1FAA0FBB1FD9
S1130150AA0FBB1FA05ABF4F28EB30E081918BBB85
S113016089914D9150E1859FC0011124842B82BB5C
S11301708BE291E00197F1F700C00000E217F3076A
S113018069F712BADF91CF910895CF93DF93E0EB33
S1130190F0E09DEC899F912D112496959695969566
S11301A0C92FD0E0CC0FDD1FCC0FDD1FCC0FDD1F1E
S11301B0C05ADF4F990F292F220F220F920F891B4C
S11301C0A82FB0E0AA0FBB1FAA0FBB1FAA0FBB1F0B
S11301D0A05ABF4F28EB30E081918BBB89914D91A0
S11301E050E1859FC0011124842B88BB8BE291E0F0
S11301F00197F1F700C00000E217F30769F718BA96
S1130200DF91CF9108951092B8001092B900109226
S1130210BA001092BC001092BB008091B8000E94FA
S1130220C5008091B9000E9487008091BA000E94A5
S113023049008091BB009091BC0001969093BC0052
S11302408093BB008631914040F38091BA008F5F68
S11302508093BA008C33E8F28091B9008F5F809369
S1130260B9008C33A0F28091B8008F5F8093B800FE
S1130270883158F208958FEF8ABB87BB84BB81BB5A
S10D02800E940301FDCFF894FFCFA4
S113028A0F0909090909090F010101010101010104
S113029A0F01010F0808080F0F01010F0101010FD7
S11302AA0909090F010101010F08080F0101010FD2
S11302BA0F08080F0909090F0F01010101010101C2
S11302CA0F09090F0909090F0F09090F0101010F84
S10B02DA7FBFDFEFF7FBFDFE1F
S9030000FC
